{
  "_format": "hh-sol-artifact-1",
  "contractName": "AntiApe",
  "sourceName": "contracts/AntiApe.sol",
  "abi": [
    {
      "inputs": [
        {
          "internalType": "string",
          "name": "_name",
          "type": "string"
        },
        {
          "internalType": "string",
          "name": "_symbol",
          "type": "string"
        },
        {
          "internalType": "string",
          "name": "_initBaseURI",
          "type": "string"
        }
      ],
      "stateMutability": "nonpayable",
      "type": "constructor"
    },
    {
      "anonymous": false,
      "inputs": [
        {
          "indexed": true,
          "internalType": "address",
          "name": "owner",
          "type": "address"
        },
        {
          "indexed": true,
          "internalType": "address",
          "name": "approved",
          "type": "address"
        },
        {
          "indexed": true,
          "internalType": "uint256",
          "name": "tokenId",
          "type": "uint256"
        }
      ],
      "name": "Approval",
      "type": "event"
    },
    {
      "anonymous": false,
      "inputs": [
        {
          "indexed": true,
          "internalType": "address",
          "name": "owner",
          "type": "address"
        },
        {
          "indexed": true,
          "internalType": "address",
          "name": "operator",
          "type": "address"
        },
        {
          "indexed": false,
          "internalType": "bool",
          "name": "approved",
          "type": "bool"
        }
      ],
      "name": "ApprovalForAll",
      "type": "event"
    },
    {
      "anonymous": false,
      "inputs": [
        {
          "indexed": true,
          "internalType": "address",
          "name": "previousOwner",
          "type": "address"
        },
        {
          "indexed": true,
          "internalType": "address",
          "name": "newOwner",
          "type": "address"
        }
      ],
      "name": "OwnershipTransferred",
      "type": "event"
    },
    {
      "anonymous": false,
      "inputs": [
        {
          "indexed": true,
          "internalType": "address",
          "name": "from",
          "type": "address"
        },
        {
          "indexed": true,
          "internalType": "address",
          "name": "to",
          "type": "address"
        },
        {
          "indexed": true,
          "internalType": "uint256",
          "name": "tokenId",
          "type": "uint256"
        }
      ],
      "name": "Transfer",
      "type": "event"
    },
    {
      "inputs": [],
      "name": "_initBaseURI",
      "outputs": [
        {
          "internalType": "string",
          "name": "",
          "type": "string"
        }
      ],
      "stateMutability": "view",
      "type": "function"
    },
    {
      "inputs": [],
      "name": "_name",
      "outputs": [
        {
          "internalType": "string",
          "name": "",
          "type": "string"
        }
      ],
      "stateMutability": "view",
      "type": "function"
    },
    {
      "inputs": [],
      "name": "_symbol",
      "outputs": [
        {
          "internalType": "string",
          "name": "",
          "type": "string"
        }
      ],
      "stateMutability": "view",
      "type": "function"
    },
    {
      "inputs": [
        {
          "internalType": "address",
          "name": "",
          "type": "address"
        }
      ],
      "name": "allowlist",
      "outputs": [
        {
          "internalType": "bool",
          "name": "",
          "type": "bool"
        }
      ],
      "stateMutability": "view",
      "type": "function"
    },
    {
      "inputs": [
        {
          "internalType": "address[]",
          "name": "_arr",
          "type": "address[]"
        }
      ],
      "name": "allowlistUser",
      "outputs": [],
      "stateMutability": "nonpayable",
      "type": "function"
    },
    {
      "inputs": [
        {
          "internalType": "address",
          "name": "to",
          "type": "address"
        },
        {
          "internalType": "uint256",
          "name": "tokenId",
          "type": "uint256"
        }
      ],
      "name": "approve",
      "outputs": [],
      "stateMutability": "nonpayable",
      "type": "function"
    },
    {
      "inputs": [
        {
          "internalType": "address",
          "name": "owner",
          "type": "address"
        }
      ],
      "name": "balanceOf",
      "outputs": [
        {
          "internalType": "uint256",
          "name": "",
          "type": "uint256"
        }
      ],
      "stateMutability": "view",
      "type": "function"
    },
    {
      "inputs": [],
      "name": "baseExtension",
      "outputs": [
        {
          "internalType": "string",
          "name": "",
          "type": "string"
        }
      ],
      "stateMutability": "view",
      "type": "function"
    },
    {
      "inputs": [],
      "name": "baseURI",
      "outputs": [
        {
          "internalType": "string",
          "name": "",
          "type": "string"
        }
      ],
      "stateMutability": "view",
      "type": "function"
    },
    {
      "inputs": [],
      "name": "cost",
      "outputs": [
        {
          "internalType": "uint256",
          "name": "",
          "type": "uint256"
        }
      ],
      "stateMutability": "view",
      "type": "function"
    },
    {
      "inputs": [
        {
          "internalType": "uint256",
          "name": "tokenId",
          "type": "uint256"
        }
      ],
      "name": "getApproved",
      "outputs": [
        {
          "internalType": "address",
          "name": "",
          "type": "address"
        }
      ],
      "stateMutability": "view",
      "type": "function"
    },
    {
      "inputs": [],
      "name": "getRemainCollections",
      "outputs": [
        {
          "internalType": "uint256",
          "name": "",
          "type": "uint256"
        }
      ],
      "stateMutability": "view",
      "type": "function"
    },
    {
      "inputs": [
        {
          "internalType": "address",
          "name": "owner",
          "type": "address"
        },
        {
          "internalType": "address",
          "name": "operator",
          "type": "address"
        }
      ],
      "name": "isApprovedForAll",
      "outputs": [
        {
          "internalType": "bool",
          "name": "",
          "type": "bool"
        }
      ],
      "stateMutability": "view",
      "type": "function"
    },
    {
      "inputs": [],
      "name": "maxMintAmount",
      "outputs": [
        {
          "internalType": "uint256",
          "name": "",
          "type": "uint256"
        }
      ],
      "stateMutability": "view",
      "type": "function"
    },
    {
      "inputs": [],
      "name": "maxSupply",
      "outputs": [
        {
          "internalType": "uint256",
          "name": "",
          "type": "uint256"
        }
      ],
      "stateMutability": "view",
      "type": "function"
    },
    {
      "inputs": [],
      "name": "metaDataFolder",
      "outputs": [
        {
          "internalType": "string",
          "name": "",
          "type": "string"
        }
      ],
      "stateMutability": "view",
      "type": "function"
    },
    {
      "inputs": [
        {
          "internalType": "address",
          "name": "_to",
          "type": "address"
        },
        {
          "internalType": "uint256",
          "name": "_mintAmount",
          "type": "uint256"
        }
      ],
      "name": "mint",
      "outputs": [],
      "stateMutability": "payable",
      "type": "function"
    },
    {
      "inputs": [],
      "name": "name",
      "outputs": [
        {
          "internalType": "string",
          "name": "",
          "type": "string"
        }
      ],
      "stateMutability": "view",
      "type": "function"
    },
    {
      "inputs": [],
      "name": "nftPerAddressLimit",
      "outputs": [
        {
          "internalType": "uint256",
          "name": "",
          "type": "uint256"
        }
      ],
      "stateMutability": "view",
      "type": "function"
    },
    {
      "inputs": [],
      "name": "owner",
      "outputs": [
        {
          "internalType": "address",
          "name": "",
          "type": "address"
        }
      ],
      "stateMutability": "view",
      "type": "function"
    },
    {
      "inputs": [
        {
          "internalType": "uint256",
          "name": "tokenId",
          "type": "uint256"
        }
      ],
      "name": "ownerOf",
      "outputs": [
        {
          "internalType": "address",
          "name": "",
          "type": "address"
        }
      ],
      "stateMutability": "view",
      "type": "function"
    },
    {
      "inputs": [
        {
          "internalType": "bool",
          "name": "_state",
          "type": "bool"
        }
      ],
      "name": "pause",
      "outputs": [],
      "stateMutability": "nonpayable",
      "type": "function"
    },
    {
      "inputs": [],
      "name": "paused",
      "outputs": [
        {
          "internalType": "bool",
          "name": "",
          "type": "bool"
        }
      ],
      "stateMutability": "view",
      "type": "function"
    },
    {
      "inputs": [],
      "name": "remainTokenAmount",
      "outputs": [
        {
          "internalType": "uint256",
          "name": "",
          "type": "uint256"
        }
      ],
      "stateMutability": "view",
      "type": "function"
    },
    {
      "inputs": [
        {
          "internalType": "address[]",
          "name": "_arr",
          "type": "address[]"
        }
      ],
      "name": "removeAllowlistUser",
      "outputs": [],
      "stateMutability": "nonpayable",
      "type": "function"
    },
    {
      "inputs": [],
      "name": "renounceOwnership",
      "outputs": [],
      "stateMutability": "nonpayable",
      "type": "function"
    },
    {
      "inputs": [
        {
          "internalType": "address",
          "name": "from",
          "type": "address"
        },
        {
          "internalType": "address",
          "name": "to",
          "type": "address"
        },
        {
          "internalType": "uint256",
          "name": "tokenId",
          "type": "uint256"
        }
      ],
      "name": "safeTransferFrom",
      "outputs": [],
      "stateMutability": "nonpayable",
      "type": "function"
    },
    {
      "inputs": [
        {
          "internalType": "address",
          "name": "from",
          "type": "address"
        },
        {
          "internalType": "address",
          "name": "to",
          "type": "address"
        },
        {
          "internalType": "uint256",
          "name": "tokenId",
          "type": "uint256"
        },
        {
          "internalType": "bytes",
          "name": "_data",
          "type": "bytes"
        }
      ],
      "name": "safeTransferFrom",
      "outputs": [],
      "stateMutability": "nonpayable",
      "type": "function"
    },
    {
      "inputs": [
        {
          "internalType": "address",
          "name": "operator",
          "type": "address"
        },
        {
          "internalType": "bool",
          "name": "approved",
          "type": "bool"
        }
      ],
      "name": "setApprovalForAll",
      "outputs": [],
      "stateMutability": "nonpayable",
      "type": "function"
    },
    {
      "inputs": [
        {
          "internalType": "string",
          "name": "_newBaseExtension",
          "type": "string"
        }
      ],
      "name": "setBaseExtension",
      "outputs": [],
      "stateMutability": "nonpayable",
      "type": "function"
    },
    {
      "inputs": [
        {
          "internalType": "string",
          "name": "_newBaseURI",
          "type": "string"
        }
      ],
      "name": "setBaseURI",
      "outputs": [],
      "stateMutability": "nonpayable",
      "type": "function"
    },
    {
      "inputs": [
        {
          "internalType": "uint256",
          "name": "_newCost",
          "type": "uint256"
        }
      ],
      "name": "setCost",
      "outputs": [],
      "stateMutability": "nonpayable",
      "type": "function"
    },
    {
      "inputs": [
        {
          "internalType": "uint256",
          "name": "_newMaxMintAmount",
          "type": "uint256"
        }
      ],
      "name": "setMaxMintAmount",
      "outputs": [],
      "stateMutability": "nonpayable",
      "type": "function"
    },
    {
      "inputs": [
        {
          "internalType": "uint256",
          "name": "_limit",
          "type": "uint256"
        }
      ],
      "name": "setNftPerAddressLimit",
      "outputs": [],
      "stateMutability": "nonpayable",
      "type": "function"
    },
    {
      "inputs": [
        {
          "internalType": "bytes4",
          "name": "interfaceId",
          "type": "bytes4"
        }
      ],
      "name": "supportsInterface",
      "outputs": [
        {
          "internalType": "bool",
          "name": "",
          "type": "bool"
        }
      ],
      "stateMutability": "view",
      "type": "function"
    },
    {
      "inputs": [],
      "name": "symbol",
      "outputs": [
        {
          "internalType": "string",
          "name": "",
          "type": "string"
        }
      ],
      "stateMutability": "view",
      "type": "function"
    },
    {
      "inputs": [
        {
          "internalType": "uint256",
          "name": "index",
          "type": "uint256"
        }
      ],
      "name": "tokenByIndex",
      "outputs": [
        {
          "internalType": "uint256",
          "name": "",
          "type": "uint256"
        }
      ],
      "stateMutability": "view",
      "type": "function"
    },
    {
      "inputs": [
        {
          "internalType": "address",
          "name": "owner",
          "type": "address"
        },
        {
          "internalType": "uint256",
          "name": "index",
          "type": "uint256"
        }
      ],
      "name": "tokenOfOwnerByIndex",
      "outputs": [
        {
          "internalType": "uint256",
          "name": "",
          "type": "uint256"
        }
      ],
      "stateMutability": "view",
      "type": "function"
    },
    {
      "inputs": [
        {
          "internalType": "uint256",
          "name": "tokenId",
          "type": "uint256"
        }
      ],
      "name": "tokenURI",
      "outputs": [
        {
          "internalType": "string",
          "name": "",
          "type": "string"
        }
      ],
      "stateMutability": "view",
      "type": "function"
    },
    {
      "inputs": [],
      "name": "totalSupply",
      "outputs": [
        {
          "internalType": "uint256",
          "name": "",
          "type": "uint256"
        }
      ],
      "stateMutability": "view",
      "type": "function"
    },
    {
      "inputs": [
        {
          "internalType": "address",
          "name": "from",
          "type": "address"
        },
        {
          "internalType": "address",
          "name": "to",
          "type": "address"
        },
        {
          "internalType": "uint256",
          "name": "tokenId",
          "type": "uint256"
        }
      ],
      "name": "transferFrom",
      "outputs": [],
      "stateMutability": "nonpayable",
      "type": "function"
    },
    {
      "inputs": [
        {
          "internalType": "address",
          "name": "newOwner",
          "type": "address"
        }
      ],
      "name": "transferOwnership",
      "outputs": [],
      "stateMutability": "nonpayable",
      "type": "function"
    },
    {
      "inputs": [
        {
          "internalType": "address",
          "name": "_owner",
          "type": "address"
        }
      ],
      "name": "walletOfOwner",
      "outputs": [
        {
          "internalType": "uint256[]",
          "name": "",
          "type": "uint256[]"
        }
      ],
      "stateMutability": "view",
      "type": "function"
    },
    {
      "inputs": [],
      "name": "withdraw",
      "outputs": [],
      "stateMutability": "payable",
      "type": "function"
    }
  ],
  "bytecode": "0x60c06040526005608081905264173539b7b760d91b60a09081526200002891600c9190620001e3565b50604080518082019091526009808252686d657461646174612f60b81b60209092019182526200005b91600d91620001e3565b50666a94d74f430000600e556032600f819055601055600260118190556012556016805460ff191690553480156200009257600080fd5b5060405162002c9238038062002c92833981016040819052620000b5916200033c565b825183908390620000ce906000906020850190620001e3565b508051620000e4906001906020840190620001e3565b50505062000101620000fb6200011560201b60201c565b62000119565b6200010c816200016b565b5050506200041c565b3390565b600a80546001600160a01b038381166001600160a01b0319831681179093556040519116919082907f8be0079c531659141344cd1fd0a4f28419497f9722a3daafe3b4186f6b6457e090600090a35050565b600a546001600160a01b03163314620001ca5760405162461bcd60e51b815260206004820181905260248201527f4f776e61626c653a2063616c6c6572206973206e6f7420746865206f776e6572604482015260640160405180910390fd5b8051620001df90600b906020840190620001e3565b5050565b828054620001f190620003c9565b90600052602060002090601f01602090048101928262000215576000855562000260565b82601f106200023057805160ff191683800117855562000260565b8280016001018555821562000260579182015b828111156200026057825182559160200191906001019062000243565b506200026e92915062000272565b5090565b5b808211156200026e576000815560010162000273565b600082601f8301126200029a578081fd5b81516001600160401b0380821115620002b757620002b762000406565b604051601f8301601f19908116603f01168101908282118183101715620002e257620002e262000406565b81604052838152602092508683858801011115620002fe578485fd5b8491505b8382101562000321578582018301518183018401529082019062000302565b838211156200033257848385830101525b9695505050505050565b60008060006060848603121562000351578283fd5b83516001600160401b038082111562000368578485fd5b620003768783880162000289565b945060208601519150808211156200038c578384fd5b6200039a8783880162000289565b93506040860151915080821115620003b0578283fd5b50620003bf8682870162000289565b9150509250925092565b600181811c90821680620003de57607f821691505b602082108114156200040057634e487b7160e01b600052602260045260246000fd5b50919050565b634e487b7160e01b600052604160045260246000fd5b612866806200042c6000396000f3fe6080604052600436106102675760003560e01c80636c0360eb11610144578063ba7d2c76116100b6578063d28d88521161007a578063d28d8852146106cc578063d5abeb01146106e1578063da3ef23f146106f7578063e25d284814610717578063e985e9c514610737578063f2fde38b1461078057600080fd5b8063ba7d2c761461064b578063c668286214610661578063c7873b8314610676578063c87b56dd1461068c578063d0eb26b0146106ac57600080fd5b806395d89b411161010857806395d89b4114610591578063a22cb465146105a6578063a7cd52cb146105c6578063b09f1266146105f6578063b1dc79091461060b578063b88d4fde1461062b57600080fd5b80636c0360eb1461051457806370a0823114610529578063715018a6146105495780638da5cb5b1461055e5780639502743d1461057c57600080fd5b806323b872dd116101dd578063438b6300116101a1578063438b63001461044d57806344a0d68a1461047a5780634f6ccce71461049a57806355f804b3146104ba5780635c975abb146104da5780636352211e146104f457600080fd5b806323b872dd146103d25780632f745c59146103f25780633ccfd60b1461041257806340c10f191461041a57806342842e0e1461042d57600080fd5b8063088a4ed01161022f578063088a4ed01461033c578063095ea7b31461035c57806313faede61461037c57806318160ddd146103925780631de18b36146103a7578063239c70ae146103bc57600080fd5b806301ffc9a71461026c57806302329a29146102a157806302fcb7af146102c357806306fdde03146102e2578063081812fc14610304575b600080fd5b34801561027857600080fd5b5061028c61028736600461238a565b6107a0565b60405190151581526020015b60405180910390f35b3480156102ad57600080fd5b506102c16102bc366004612370565b6107cb565b005b3480156102cf57600080fd5b506010545b604051908152602001610298565b3480156102ee57600080fd5b506102f7610811565b60405161029891906125ad565b34801561031057600080fd5b5061032461031f366004612408565b6108a3565b6040516001600160a01b039091168152602001610298565b34801561034857600080fd5b506102c1610357366004612408565b610938565b34801561036857600080fd5b506102c1610377366004612298565b610967565b34801561038857600080fd5b506102d4600e5481565b34801561039e57600080fd5b506008546102d4565b3480156103b357600080fd5b506102f7610a7d565b3480156103c857600080fd5b506102d460115481565b3480156103de57600080fd5b506102c16103ed3660046121bb565b610b0b565b3480156103fe57600080fd5b506102d461040d366004612298565b610b3c565b6102c1610bd2565b6102c1610428366004612298565b610c8a565b34801561043957600080fd5b506102c16104483660046121bb565b610ea0565b34801561045957600080fd5b5061046d61046836600461216f565b610ebb565b6040516102989190612569565b34801561048657600080fd5b506102c1610495366004612408565b610f79565b3480156104a657600080fd5b506102d46104b5366004612408565b610fa8565b3480156104c657600080fd5b506102c16104d53660046123c2565b611049565b3480156104e657600080fd5b5060165461028c9060ff1681565b34801561050057600080fd5b5061032461050f366004612408565b61108a565b34801561052057600080fd5b506102f7611101565b34801561053557600080fd5b506102d461054436600461216f565b61110e565b34801561055557600080fd5b506102c1611195565b34801561056a57600080fd5b50600a546001600160a01b0316610324565b34801561058857600080fd5b506102f76111cb565b34801561059d57600080fd5b506102f76111d8565b3480156105b257600080fd5b506102c16105c136600461226f565b6111e7565b3480156105d257600080fd5b5061028c6105e136600461216f565b60176020526000908152604090205460ff1681565b34801561060257600080fd5b506102f76112ac565b34801561061757600080fd5b506102c16106263660046122c1565b6112b9565b34801561063757600080fd5b506102c16106463660046121f6565b611359565b34801561065757600080fd5b506102d460125481565b34801561066d57600080fd5b506102f761138b565b34801561068257600080fd5b506102d460105481565b34801561069857600080fd5b506102f76106a7366004612408565b611398565b3480156106b857600080fd5b506102c16106c7366004612408565b611479565b3480156106d857600080fd5b506102f76114a8565b3480156106ed57600080fd5b506102d4600f5481565b34801561070357600080fd5b506102c16107123660046123c2565b6114b5565b34801561072357600080fd5b506102c16107323660046122c1565b6114f2565b34801561074357600080fd5b5061028c610752366004612189565b6001600160a01b03918216600090815260056020908152604080832093909416825291909152205460ff1690565b34801561078c57600080fd5b506102c161079b36600461216f565b611592565b60006001600160e01b0319821663780e9d6360e01b14806107c557506107c58261162a565b92915050565b600a546001600160a01b031633146107fe5760405162461bcd60e51b81526004016107f590612612565b60405180910390fd5b6016805460ff1916911515919091179055565b6060600080546108209061276e565b80601f016020809104026020016040519081016040528092919081815260200182805461084c9061276e565b80156108995780601f1061086e57610100808354040283529160200191610899565b820191906000526020600020905b81548152906001019060200180831161087c57829003601f168201915b5050505050905090565b6000818152600260205260408120546001600160a01b031661091c5760405162461bcd60e51b815260206004820152602c60248201527f4552433732313a20617070726f76656420717565727920666f72206e6f6e657860448201526b34b9ba32b73a103a37b5b2b760a11b60648201526084016107f5565b506000908152600460205260409020546001600160a01b031690565b600a546001600160a01b031633146109625760405162461bcd60e51b81526004016107f590612612565b601155565b60006109728261108a565b9050806001600160a01b0316836001600160a01b031614156109e05760405162461bcd60e51b815260206004820152602160248201527f4552433732313a20617070726f76616c20746f2063757272656e74206f776e656044820152603960f91b60648201526084016107f5565b336001600160a01b03821614806109fc57506109fc8133610752565b610a6e5760405162461bcd60e51b815260206004820152603860248201527f4552433732313a20617070726f76652063616c6c6572206973206e6f74206f7760448201527f6e6572206e6f7220617070726f76656420666f7220616c6c000000000000000060648201526084016107f5565b610a78838361167a565b505050565b60158054610a8a9061276e565b80601f0160208091040260200160405190810160405280929190818152602001828054610ab69061276e565b8015610b035780601f10610ad857610100808354040283529160200191610b03565b820191906000526020600020905b815481529060010190602001808311610ae657829003601f168201915b505050505081565b610b1533826116e8565b610b315760405162461bcd60e51b81526004016107f590612647565b610a788383836117df565b6000610b478361110e565b8210610ba95760405162461bcd60e51b815260206004820152602b60248201527f455243373231456e756d657261626c653a206f776e657220696e646578206f7560448201526a74206f6620626f756e647360a81b60648201526084016107f5565b506001600160a01b03919091166000908152600660209081526040808320938352929052205490565b600a546001600160a01b03163314610bfc5760405162461bcd60e51b81526004016107f590612612565b604051600090339047908381818185875af1925050503d8060008114610c3e576040519150601f19603f3d011682016040523d82523d6000602084013e610c43565b606091505b5050905080610c875760405162461bcd60e51b815260206004820152601060248201526f2a3930b739b332b9103330b4b632b21760811b60448201526064016107f5565b50565b6000610c9560085490565b60165490915060ff1615610ce05760405162461bcd60e51b815260206004820152601260248201527110dbdb9d1c9858dd081a5cc81c185d5cd95960721b60448201526064016107f5565b60008211610d275760405162461bcd60e51b81526020600482015260146024820152734d757374206d696e74206174206c65617374203160601b60448201526064016107f5565b601154821115610d795760405162461bcd60e51b815260206004820152601f60248201527f43616e6e6f74206d696e74206d6f7265207468616e2035206174206f6e63650060448201526064016107f5565b600f54610d8683836126c9565b1115610dd45760405162461bcd60e51b815260206004820152601e60248201527f4d696e7420616d6f756e742065786365656473206d617820737570706c79000060448201526064016107f5565b600a546001600160a01b03163314610e55573360009081526017602052604090205460ff161515600114610e555781600e54610e1091906126f5565b341015610e555760405162461bcd60e51b8152602060048201526013602482015272139bdd08195b9bdd59da08115512081cd95b9d606a1b60448201526064016107f5565b60015b828111610e9a57610e7284610e6d83856126c9565b61198a565b60108054906000610e8283612757565b91905055508080610e92906127a9565b915050610e58565b50505050565b610a7883838360405180602001604052806000815250611359565b60606000610ec88361110e565b905060008167ffffffffffffffff811115610ef357634e487b7160e01b600052604160045260246000fd5b604051908082528060200260200182016040528015610f1c578160200160208202803683370190505b50905060005b82811015610f7157610f348582610b3c565b828281518110610f5457634e487b7160e01b600052603260045260246000fd5b602090810291909101015280610f69816127a9565b915050610f22565b509392505050565b600a546001600160a01b03163314610fa35760405162461bcd60e51b81526004016107f590612612565b600e55565b6000610fb360085490565b82106110165760405162461bcd60e51b815260206004820152602c60248201527f455243373231456e756d657261626c653a20676c6f62616c20696e646578206f60448201526b7574206f6620626f756e647360a01b60648201526084016107f5565b6008828154811061103757634e487b7160e01b600052603260045260246000fd5b90600052602060002001549050919050565b600a546001600160a01b031633146110735760405162461bcd60e51b81526004016107f590612612565b805161108690600b906020840190612052565b5050565b6000818152600260205260408120546001600160a01b0316806107c55760405162461bcd60e51b815260206004820152602960248201527f4552433732313a206f776e657220717565727920666f72206e6f6e657869737460448201526832b73a103a37b5b2b760b91b60648201526084016107f5565b600b8054610a8a9061276e565b60006001600160a01b0382166111795760405162461bcd60e51b815260206004820152602a60248201527f4552433732313a2062616c616e636520717565727920666f7220746865207a65604482015269726f206164647265737360b01b60648201526084016107f5565b506001600160a01b031660009081526003602052604090205490565b600a546001600160a01b031633146111bf5760405162461bcd60e51b81526004016107f590612612565b6111c960006119a4565b565b600d8054610a8a9061276e565b6060600180546108209061276e565b6001600160a01b0382163314156112405760405162461bcd60e51b815260206004820152601960248201527f4552433732313a20617070726f766520746f2063616c6c65720000000000000060448201526064016107f5565b3360008181526005602090815260408083206001600160a01b03871680855290835292819020805460ff191686151590811790915590519081529192917f17307eab39ab6107e8899845ad3d59bd9653f200f220920489ca2b5937696c31910160405180910390a35050565b60148054610a8a9061276e565b600a546001600160a01b031633146112e35760405162461bcd60e51b81526004016107f590612612565b60005b81518110156110865760016017600084848151811061131557634e487b7160e01b600052603260045260246000fd5b6020908102919091018101516001600160a01b03168252810191909152604001600020805460ff191691151591909117905580611351816127a9565b9150506112e6565b61136333836116e8565b61137f5760405162461bcd60e51b81526004016107f590612647565b610e9a848484846119f6565b600c8054610a8a9061276e565b6000818152600260205260409020546060906001600160a01b03166114175760405162461bcd60e51b815260206004820152602f60248201527f4552433732314d657461646174613a2055524920717565727920666f72206e6f60448201526e3732bc34b9ba32b73a103a37b5b2b760891b60648201526084016107f5565b6000611421611a29565b905060008151116114415760405180602001604052806000815250611472565b80600d61144d85611a38565b600c60405160200161146294939291906124e4565b6040516020818303038152906040525b9392505050565b600a546001600160a01b031633146114a35760405162461bcd60e51b81526004016107f590612612565b601255565b60138054610a8a9061276e565b600a546001600160a01b031633146114df5760405162461bcd60e51b81526004016107f590612612565b805161108690600c906020840190612052565b600a546001600160a01b0316331461151c5760405162461bcd60e51b81526004016107f590612612565b60005b81518110156110865760006017600084848151811061154e57634e487b7160e01b600052603260045260246000fd5b6020908102919091018101516001600160a01b03168252810191909152604001600020805460ff19169115159190911790558061158a816127a9565b91505061151f565b600a546001600160a01b031633146115bc5760405162461bcd60e51b81526004016107f590612612565b6001600160a01b0381166116215760405162461bcd60e51b815260206004820152602660248201527f4f776e61626c653a206e6577206f776e657220697320746865207a65726f206160448201526564647265737360d01b60648201526084016107f5565b610c87816119a4565b60006001600160e01b031982166380ac58cd60e01b148061165b57506001600160e01b03198216635b5e139f60e01b145b806107c557506301ffc9a760e01b6001600160e01b03198316146107c5565b600081815260046020526040902080546001600160a01b0319166001600160a01b03841690811790915581906116af8261108a565b6001600160a01b03167f8c5be1e5ebec7d5bd14f71427d1e84f3dd0314c0f7b2291e5b200ac8c7c3b92560405160405180910390a45050565b6000818152600260205260408120546001600160a01b03166117615760405162461bcd60e51b815260206004820152602c60248201527f4552433732313a206f70657261746f7220717565727920666f72206e6f6e657860448201526b34b9ba32b73a103a37b5b2b760a11b60648201526084016107f5565b600061176c8361108a565b9050806001600160a01b0316846001600160a01b031614806117a75750836001600160a01b031661179c846108a3565b6001600160a01b0316145b806117d757506001600160a01b0380821660009081526005602090815260408083209388168352929052205460ff165b949350505050565b826001600160a01b03166117f28261108a565b6001600160a01b03161461185a5760405162461bcd60e51b815260206004820152602960248201527f4552433732313a207472616e73666572206f6620746f6b656e2074686174206960448201526839903737ba1037bbb760b91b60648201526084016107f5565b6001600160a01b0382166118bc5760405162461bcd60e51b8152602060048201526024808201527f4552433732313a207472616e7366657220746f20746865207a65726f206164646044820152637265737360e01b60648201526084016107f5565b6118c7838383611b52565b6118d260008261167a565b6001600160a01b03831660009081526003602052604081208054600192906118fb908490612714565b90915550506001600160a01b03821660009081526003602052604081208054600192906119299084906126c9565b909155505060008181526002602052604080822080546001600160a01b0319166001600160a01b0386811691821790925591518493918716917fddf252ad1be2c89b69c2b068fc378daa952ba7f163c4a11628f55a4df523b3ef91a4505050565b611086828260405180602001604052806000815250611c0a565b600a80546001600160a01b038381166001600160a01b0319831681179093556040519116919082907f8be0079c531659141344cd1fd0a4f28419497f9722a3daafe3b4186f6b6457e090600090a35050565b611a018484846117df565b611a0d84848484611c3d565b610e9a5760405162461bcd60e51b81526004016107f5906125c0565b6060600b80546108209061276e565b606081611a5c5750506040805180820190915260018152600360fc1b602082015290565b8160005b8115611a865780611a70816127a9565b9150611a7f9050600a836126e1565b9150611a60565b60008167ffffffffffffffff811115611aaf57634e487b7160e01b600052604160045260246000fd5b6040519080825280601f01601f191660200182016040528015611ad9576020820181803683370190505b5090505b84156117d757611aee600183612714565b9150611afb600a866127c4565b611b069060306126c9565b60f81b818381518110611b2957634e487b7160e01b600052603260045260246000fd5b60200101906001600160f81b031916908160001a905350611b4b600a866126e1565b9450611add565b6001600160a01b038316611bad57611ba881600880546000838152600960205260408120829055600182018355919091527ff3f7a9fe364faab93b216da50a3214154f22a0a2b415b23a84c8169e8b636ee30155565b611bd0565b816001600160a01b0316836001600160a01b031614611bd057611bd08382611d4a565b6001600160a01b038216611be757610a7881611de7565b826001600160a01b0316826001600160a01b031614610a7857610a788282611ec0565b611c148383611f04565b611c216000848484611c3d565b610a785760405162461bcd60e51b81526004016107f5906125c0565b60006001600160a01b0384163b15611d3f57604051630a85bd0160e11b81526001600160a01b0385169063150b7a0290611c8190339089908890889060040161252c565b602060405180830381600087803b158015611c9b57600080fd5b505af1925050508015611ccb575060408051601f3d908101601f19168201909252611cc8918101906123a6565b60015b611d25573d808015611cf9576040519150601f19603f3d011682016040523d82523d6000602084013e611cfe565b606091505b508051611d1d5760405162461bcd60e51b81526004016107f5906125c0565b805181602001fd5b6001600160e01b031916630a85bd0160e11b1490506117d7565b506001949350505050565b60006001611d578461110e565b611d619190612714565b600083815260076020526040902054909150808214611db4576001600160a01b03841660009081526006602090815260408083208584528252808320548484528184208190558352600790915290208190555b5060009182526007602090815260408084208490556001600160a01b039094168352600681528383209183525290812055565b600854600090611df990600190612714565b60008381526009602052604081205460088054939450909284908110611e2f57634e487b7160e01b600052603260045260246000fd5b906000526020600020015490508060088381548110611e5e57634e487b7160e01b600052603260045260246000fd5b6000918252602080832090910192909255828152600990915260408082208490558582528120556008805480611ea457634e487b7160e01b600052603160045260246000fd5b6001900381819060005260206000200160009055905550505050565b6000611ecb8361110e565b6001600160a01b039093166000908152600660209081526040808320868452825280832085905593825260079052919091209190915550565b6001600160a01b038216611f5a5760405162461bcd60e51b815260206004820181905260248201527f4552433732313a206d696e7420746f20746865207a65726f206164647265737360448201526064016107f5565b6000818152600260205260409020546001600160a01b031615611fbf5760405162461bcd60e51b815260206004820152601c60248201527f4552433732313a20746f6b656e20616c7265616479206d696e7465640000000060448201526064016107f5565b611fcb60008383611b52565b6001600160a01b0382166000908152600360205260408120805460019290611ff49084906126c9565b909155505060008181526002602052604080822080546001600160a01b0319166001600160a01b03861690811790915590518392907fddf252ad1be2c89b69c2b068fc378daa952ba7f163c4a11628f55a4df523b3ef908290a45050565b82805461205e9061276e565b90600052602060002090601f01602090048101928261208057600085556120c6565b82601f1061209957805160ff19168380011785556120c6565b828001600101855582156120c6579182015b828111156120c65782518255916020019190600101906120ab565b506120d29291506120d6565b5090565b5b808211156120d257600081556001016120d7565b600067ffffffffffffffff83111561210557612105612804565b612118601f8401601f1916602001612698565b905082815283838301111561212c57600080fd5b828260208301376000602084830101529392505050565b80356001600160a01b038116811461215a57600080fd5b919050565b8035801515811461215a57600080fd5b600060208284031215612180578081fd5b61147282612143565b6000806040838503121561219b578081fd5b6121a483612143565b91506121b260208401612143565b90509250929050565b6000806000606084860312156121cf578081fd5b6121d884612143565b92506121e660208501612143565b9150604084013590509250925092565b6000806000806080858703121561220b578081fd5b61221485612143565b935061222260208601612143565b925060408501359150606085013567ffffffffffffffff811115612244578182fd5b8501601f81018713612254578182fd5b612263878235602084016120eb565b91505092959194509250565b60008060408385031215612281578182fd5b61228a83612143565b91506121b26020840161215f565b600080604083850312156122aa578182fd5b6122b383612143565b946020939093013593505050565b600060208083850312156122d3578182fd5b823567ffffffffffffffff808211156122ea578384fd5b818501915085601f8301126122fd578384fd5b81358181111561230f5761230f612804565b8060051b9150612320848301612698565b8181528481019084860184860187018a101561233a578788fd5b8795505b838610156123635761234f81612143565b83526001959095019491860191860161233e565b5098975050505050505050565b600060208284031215612381578081fd5b6114728261215f565b60006020828403121561239b578081fd5b81356114728161281a565b6000602082840312156123b7578081fd5b81516114728161281a565b6000602082840312156123d3578081fd5b813567ffffffffffffffff8111156123e9578182fd5b8201601f810184136123f9578182fd5b6117d7848235602084016120eb565b600060208284031215612419578081fd5b5035919050565b6000815180845261243881602086016020860161272b565b601f01601f19169290920160200192915050565b8054600090600181811c908083168061246657607f831692505b602080841082141561248657634e487b7160e01b86526022600452602486fd5b81801561249a57600181146124ab576124d8565b60ff198616895284890196506124d8565b60008881526020902060005b868110156124d05781548b8201529085019083016124b7565b505084890196505b50505050505092915050565b600085516124f6818460208a0161272b565b6125028184018761244c565b9050845161251481836020890161272b565b6125208183018661244c565b98975050505050505050565b6001600160a01b038581168252841660208201526040810183905260806060820181905260009061255f90830184612420565b9695505050505050565b6020808252825182820181905260009190848201906040850190845b818110156125a157835183529284019291840191600101612585565b50909695505050505050565b6020815260006114726020830184612420565b60208082526032908201527f4552433732313a207472616e7366657220746f206e6f6e20455243373231526560408201527131b2b4bb32b91034b6b83632b6b2b73a32b960711b606082015260800190565b6020808252818101527f4f776e61626c653a2063616c6c6572206973206e6f7420746865206f776e6572604082015260600190565b60208082526031908201527f4552433732313a207472616e736665722063616c6c6572206973206e6f74206f6040820152701ddb995c881b9bdc88185c1c1c9bdd9959607a1b606082015260800190565b604051601f8201601f1916810167ffffffffffffffff811182821017156126c1576126c1612804565b604052919050565b600082198211156126dc576126dc6127d8565b500190565b6000826126f0576126f06127ee565b500490565b600081600019048311821515161561270f5761270f6127d8565b500290565b600082821015612726576127266127d8565b500390565b60005b8381101561274657818101518382015260200161272e565b83811115610e9a5750506000910152565b600081612766576127666127d8565b506000190190565b600181811c9082168061278257607f821691505b602082108114156127a357634e487b7160e01b600052602260045260246000fd5b50919050565b60006000198214156127bd576127bd6127d8565b5060010190565b6000826127d3576127d36127ee565b500690565b634e487b7160e01b600052601160045260246000fd5b634e487b7160e01b600052601260045260246000fd5b634e487b7160e01b600052604160045260246000fd5b6001600160e01b031981168114610c8757600080fdfea26469706673582212200f53329b16c7812ad2a734a75456f71b938c908ae372bee8263af2c393cf2ea664736f6c63430008040033",
  "linkReferences": {},
  "deployedLinkReferences": {}
}